:100000000C9462000C948A000C948A000C948A0070
:100010000C948A000C948A000C948A000C948A0038
:100020000C948A000C948A000C948A000C948A0028
:100030000C948A000C948A000C948A000C948A0018
:100040000C9439040C948A000C9411020C948A00CC
:100050000C948A000C948A000C948A000C948A00F8
:100060000C948A000C948A000000000024002700F1
:100070002A0000000000250028002B0000000000DE
:1000800023002600290004040404040404040202DA
:100090000202020203030303030301020408102007
:1000A0004080010204081020010204081020000012
:1000B0000007000201000003040600000000000029
:1000C0000000CA0211241FBECFEFD8E0DEBFCDBFB3
:1000D00011E0A0E0B1E0E8EDFCE002C005900D9277
:1000E000A63AB107D9F712E0A6EAB1E001C01D9225
:1000F000AB34B107E1F710E0C4ECD0E004C02297C4
:10010000FE010E946606C23CD107C9F70E940A029E
:100110000C946A060C940000CF93DF938AE00E944F
:100120007005892BE1F461E070E080E090E00E94CE
:1001300081048091A8019091A90101969093A90151
:100140008093A801089734F081E090E09093A90192
:100150008093A8018AE00E947005892BD9F38091D1
:10016000A8019091A901019709F04BC080E392E0AA
:1001700060E071E00E94380380E00E94E504909303
:10018000A7018093A60180E392E06AE071E00E94FB
:1001900038036091A6017091A70180E392E00E946C
:1001A000210481E00E94E5049093A7018093A601B9
:1001B00080E392E06CE071E00E9438036091A60158
:1001C0007091A70180E392E00E94210482E00E94E6
:1001D000E5049093A7018093A60180E392E06CE090
:1001E00071E00E9438036091A6017091A70180E33D
:1001F00092E00E9429046CE271E080E090E00E94AD
:1002000081048091A8019091A9010297D1F4C0E0E6
:10021000D0E083E061E00E94230561E070E080E0CF
:1002200090E00E94810483E060E00E94230561E089
:1002300070E080E090E00E9481042196C436D105F0
:1002400041F78091A8019091A901039799F485E065
:100250000E94E5049093A7018093A6010B9754F0A8
:1002600080E392E06FE071E00E94570385E061E077
:100270000E9423058091A8019091A9010497A9F4F7
:1002800084E00E94E5049093A7018093A60180E397
:1002900092E06EE171E00E9438036091A6017091D6
:1002A000A70180E392E00E9429048091A801909127
:1002B000A9010597A9F483E00E94E5049093A701A2
:1002C0008093A60180E392E065E271E00E9438032A
:1002D0006091A6017091A70180E392E00E94290439
:1002E0008091A8019091A9010697F1F480E392E032
:1002F0006DE271E00E9457038CE00E947005892B2B
:1003000019F085E061E002C085E060E00E9423050D
:100310008BE00E947005892B19F086E061E002C035
:1003200086E060E00E9423058091A8019091A901D8
:100330000797A9F51092AB011092AA0180E392E011
:100340006FE371E00E94570387E060E00E9423059D
:10035000E091AA01F091AB01EF56FE4F208120956C
:1003600084E068E041E00E94BF0587E061E00E9410
:1003700023058091AA019091AB0101969093AB0166
:100380008093AA010A9721F41092AB011092AA015E
:1003900064EF71E080E090E00E948104D5CFDF91AE
:1003A000CF9108950F931F9300E312E0C80140E836
:1003B00055E260E070E00E944E0283E061E00E943E
:1003C000030585E061E00E94030586E061E00E948C
:1003D000030585E061E00E94230586E061E00E945C
:1003E000230587E061E00E94030588E061E00E9448
:1003F000030584E061E00E940305C8016AE571E03D
:100400000E945703C80167E771E00E9457031F91DC
:100410000F9108950E94AB040E94D2010E948C00AB
:10042000FDCF1F920F920FB60F9211242F933F937F
:100430004F935F936F937F938F939F93AF93BF93EC
:10044000EF93FF934091C600E0912C02F0912D02B2
:10045000CF01019660E870E00E9400069C01809147
:100460002E0290912F022817390739F0E455FE4FDC
:10047000408330932D0220932C02FF91EF91BF9186
:10048000AF919F918F917F916F915F914F913F912C
:100490002F910F900FBE0F901F901895AF92BF92A3
:1004A000CF92DF92EF92FF920F931F93CF93DF9340
:1004B0006C017A018B01DC011496AD90BC9015970C
:1004C000CB01BA0122E030E040E050E00E94350666
:1004D000205C3D4B404F5F4FCA01B901A801970115
:1004E0000E943506C901DA010197A109B109292F36
:1004F0003A2F4B2F552747FD5A950196A11DB11D47
:10050000E5012883E601EE81FF8181508083EA8541
:10051000FB85208141E050E0CA010E8402C0880FB3
:10052000991F0A94E2F7282B2083EA85FB85208116
:10053000CA010F8402C0880F991F0A94E2F7282B82
:100540002083EA85FB858081088802C0440F551FFF
:100550000A94E2F7842B8083DF91CF911F910F9152
:10056000FF90EF90DF90CF90BF90AF900895FC0187
:10057000A085B18521898C9190E0022E02C09595CD
:1005800087950A94E2F780FFF6CF0484F585E02D85
:10059000608308958FE991E0909331028093300257
:1005A0008CEA91E0909333028093320285EC90E0E4
:1005B000909335028093340284EC90E0909337025C
:1005C0008093360280EC90E0909339028093380259
:1005D00081EC90E090933B0280933A0286EC90E0AD
:1005E00090933D0280933C0284E080933E0283E03E
:1005F00080933F0287E08093400285E08093410230
:1006000008950F931F93CF93DF938C01EB0109C0E3
:100610002196D801ED91FC910190F081E02DC80167
:10062000099568816623A1F7DF91CF911F910F9102
:100630000895EF92FF920F931F93CF93DF938C0156
:100640007B01EA010CC0D7016D917D01D801ED91CC
:10065000FC910190F081E02DC80109952197209728
:1006600091F7DF91CF911F910F91FF90EF90089537
:10067000DC01ED91FC910280F381E02D0995089554
:100680000F931F938C01DC01ED91FC910190F0819F
:10069000E02D6DE00995D801ED91FC910190F0817C
:1006A000E02DC8016AE009951F910F9108950F93FD
:1006B0001F938C010E943803C8010E9440031F91C0
:1006C0000F9108952F923F924F925F926F927F9277
:1006D0008F929F92AF92BF92CF92DF92EF92FF9252
:1006E0000F931F93DF93CF93CDB7DEB7A0970FB6CD
:1006F000F894DEBF0FBECDBF1C016A017B0141151E
:1007000051056105710549F4DC01ED91FC91019001
:10071000F081E02D60E3099554C0882499245401A8
:10072000422E55246624772401E010E00C0F1D1F93
:10073000080D191DC701B601A30192010E941306FD
:10074000F80160830894811C911CA11CB11CC70195
:10075000B601A30192010E941306C901DA016C01DE
:100760007D01C114D104E104F104F1F681E0E82E29
:10077000F12CEC0EFD1EE80CF91C3E010894611CE6
:10078000711CD501C4010197A109B1096C01C818F8
:10079000D90814C0F601EE0DFF1D60816A3010F417
:1007A000605D01C0695CD101ED91FC910190F08127
:1007B000E02DC10109950894E108F1086E147F0449
:1007C00049F7A0960FB6F894DEBF0FBECDBFCF910C
:1007D000DF911F910F91FF90EF90DF90CF90BF902E
:1007E000AF909F908F907F906F905F904F903F90D1
:1007F0002F900895EF92FF920F931F93CF93DF9363
:10080000EC017A018B0177FF0FC0E881F98101903B
:10081000F081E02D6DE2099510950095F094E0943B
:10082000E11CF11C011D111DCE01B801A7012AE038
:100830000E946203DF91CF911F910F91FF90EF9083
:100840000895AB01662757FD6095762F0E94FA0345
:1008500008950F931F938C01AB01662757FD609598
:10086000762F0E94FA03C8010E9440031F910F9146
:1008700008951F920F920FB60F9211242F933F935A
:100880008F939F93AF93BF938091460290914702BD
:10089000A0914802B091490230914A020196A11DEF
:1008A000B11D232F2D5F2D3720F02D570196A11D4F
:1008B000B11D20934A028093460290934702A09371
:1008C0004802B09349028091420290914302A09164
:1008D0004402B09145020196A11DB11D80934202D0
:1008E00090934302A0934402B0934502BF91AF910D
:1008F0009F918F913F912F910F900FBE0F901F905E
:100900001895EF92FF920F931F937B018C018FB785
:10091000F8944091460250914702609148027091CC
:1009200049028FBF2FB7F8948091460290914702F9
:10093000A0914802B09149022FBF841B950BA60BD2
:10094000B70BE816F9060A071B0760F71F910F910E
:10095000FF90EF900895789484B5826084BD84B54B
:10096000816084BD85B5826085BD85B5816085BDAA
:10097000EEE6F0E0808181608083E1E8F0E0808154
:1009800082608083808181608083E0E8F0E0808104
:1009900081608083E1EBF0E0808184608083E0EB24
:1009A000F0E0808181608083EAE7F0E0808184600C
:1009B0008083808182608083808181608083808168
:1009C000806880831092C100089587709091900193
:1009D0009295990F990F907C982B90937C00809121
:1009E0007A00806480937A0080917A0086FDFCCF43
:1009F0002091780040917900942F80E030E0282BFE
:100A0000392BC9010895282F30E0C90186569F4F20
:100A1000FC0194912A573F4FF9018491882391F06A
:100A2000E82FF0E0EE0FFF1FE859FF4FA591B491BA
:100A3000662329F48C91909589238C9308958C9149
:100A4000892B8C930895482F50E0CA0182559F4FFF
:100A5000FC012491CA0186569F4FFC0194914A578C
:100A60005F4FFA0134913323D1F1222331F1233046
:100A700021F4809180008F7705C0243031F480917B
:100A800080008F7D8093800018C0213019F484B5D8
:100A90008F7704C0223021F484B58F7D84BD0DC0D2
:100AA000263021F48091B0008F7705C0273029F4DB
:100AB0008091B0008F7D8093B000E32FF0E0EE0FC7
:100AC000FF1FEE58FF4FA591B491662329F48C9136
:100AD000909589238C9308958C91892B8C930895FC
:100AE000682F70E0CB0182559F4FFC012491CB0110
:100AF00086569F4FFC0144916A577F4FFB019491AA
:100B0000992319F420E030E038C0222331F123305A
:100B100021F4809180008F7705C0243031F48091DA
:100B200080008F7D8093800018C0213019F484B537
:100B30008F7704C0223021F484B58F7D84BD0DC031
:100B4000263021F48091B0008F7705C0273029F43A
:100B50008091B0008F7D8093B000892F90E0880F46
:100B6000991F84589F4FFC01A591B4918C9120E06E
:100B700030E0842311F021E030E0C9010895BF92F4
:100B8000CF92DF92EF92FF920F931F93CF93DF9359
:100B9000E82EF62EB42EC0E0D0E0022F10E087E061
:100BA000C82ED12CBB2041F4B8010C2E02C0759583
:100BB00067950A94E2F70AC0B6016C1B7D0BC80169
:100BC00002C0959587956A95E2F7BC0161708E2DFC
:100BD0000E9423058F2D61E00E9423058F2D60E088
:100BE0000E9423052196C830D105E1F6DF91CF910F
:100BF0001F910F91FF90EF90DF90CF90BF900895DD
:100C000097FB092E07260AD077FD04D049D006D0DD
:100C100000201AF4709561957F4F0895F6F790952E
:100C200081959F4F0895A1E21A2EAA1BBB1BFD01BF
:100C30000DC0AA1FBB1FEE1FFF1FA217B307E407BB
:100C4000F50720F0A21BB30BE40BF50B661F771F13
:100C5000881F991F1A9469F76095709580959095F3
:100C60009B01AC01BD01CF01089597FB092E05261C
:100C70000ED057FD04D0D7DF0AD0001C38F45095B1
:100C80004095309521953F4F4F4F5F4F0895F6F7B0
:100C900090958095709561957F4F8F4F9F4F0895E8
:100CA000AA1BBB1B51E107C0AA1FBB1FA617B70792
:100CB00010F0A61BB70B881F991F5A95A9F78095AE
:100CC0009095BC01CD010895EE0FFF1F0590F491A2
:080CD000E02D0994F894FFCF18
:100CD800536C69646572733A200020002020004B31
:100CE8006E6F636B20526563656976656400546551
:100CF8006D703A20004C696768743A200042757438
:100D0800746F6E203220262033205465737400538C
:100D18006576656E207365676D656E7420646973AA
:100D2800706C617920746573740044616E676572D4
:100D380020536869656C6420436F6D706F6E656ED3
:100D4800742054657374005072657373204275740F
:100D5800746F6E203120746F20626567696E2E0093
:100D6800013F065B4F666D7D077F6F00000000B78F
:060D780002010319030053
:00000001FF
