:100000000C9483000C94A9000C94A9000C94A900F2
:100010000C94A9000C94A9000C94A9000C94A900BC
:100020000C94A9000C94A9000C94A9000C94A900AC
:100030000C94A9000C94A9000C94A9000C94A9009C
:100040000C94FE020C94A9000C9467050C94A90072
:100050000C94A9000C94A9000C94A9000C94A9007C
:100060000C94A9000C94A900FD020639652C033AF2
:10007000A23B593C1EBAE03D633BF43E75FF4E3F48
:100080003172113F800000000540B504F441A0002A
:100090000141E2463241A0000040E246303F80008C
:1000A000000541778C4F40C32CE24117BF24C1A407
:1000B0008DD9C0E1D8A1C05B6782000000070002B3
:1000C000010000030406000000000000000001021F
:1000D00004081020408001020408102001020408D6
:1000E00010200404040404040404020202020202B4
:1000F0000303030303030000232629000025282B04
:10010000000024272A0011241FBECFEFD4E0DEBF59
:10011000CDBF11E0A0E0B1E0E0E3F3E102C0059063
:100120000D92A830B107D9F712E0A8E0B1E001C004
:100130001D92A132B107E1F710E0CAE6D0E004C099
:100140002297FE010E949409C836D107C9F70C9482
:100150002D020C9400001F9360E082E00E943B049B
:1001600060E087E00E943B0460E084E00E943B0482
:1001700061E086E00E943B0461E085E00E943B0470
:1001800061E083E00E943B0461E08BE00E943B045D
:1001900061E08AE00E943B0461E089E00E943B0448
:1001A00061E088E00E943B0461E08CE00E943B0437
:1001B00061E08DE00E943B0461E086E00E94A204C1
:1001C00061E085E00E94A20461E08BE00E94A2044D
:1001D00061E08AE00E94A20461E089E00E94A2043A
:1001E00060E088E00E94A2042FEF41E06CE08DE027
:1001F0000E94790661E088E00E94A2041FEF61E09E
:1002000083E00E94A2048BE797E00E94750360E000
:1002100083E00E94A204115091F760E086E00E9402
:10022000A20460E085E00E94A20460E08BE00E94EE
:10023000A20460E08AE00E94A20460E089E00E94DB
:10024000A20460E088E00E94A20420E041E06CE0AB
:100250008DE00E94790661E088E00E94A20440E8F7
:1002600055E260E070E088E191E00E943A0260E0CF
:1002700071E088E191E00E946D021F9108950E9453
:10028000AB000895EF92FF920F931F937A018B01B9
:100290009927AA2797FDA095BA2FBC01CD010E94EE
:1002A000180720E030E04FE753E40E94B506A801AC
:1002B00097010E94B80720E030E04FE753E40E9426
:1002C00070070E94FB06DC01CB0199271F910F915B
:1002D000FF90EF9008950F931F9382E00E94CC034C
:1002E00064E070E00E942E0970931701609316017C
:1002F00081E00E94CC0364E070E00E942E097093BC
:1003000015016093140180E00E94CC0364E070E06A
:100310000E942E098B01709313016093120140E03B
:1003200050E060E470E4809116010E944201992738
:10033000909311018093100140E050E060E470E47C
:10034000809114010E944201992790930F0180939C
:100350000E0140E050E060E470E4802F0E94420112
:10036000992790930D0180930C0190930B0180933A
:100370000A01909309018093080182E00E945904C8
:10038000892BB9F060911001709111018BE00E94EE
:10039000E70361E083E00E94A20482E00E94CC03B4
:1003A00088519C4F0E94750360E083E00E94A20484
:1003B00005C060E070E08BE00E94E70387E00E94E8
:1003C0005904892BE1F060910E0170910F018AE0D0
:1003D0000E94E70361E083E00E94A20481E00E94A2
:1003E000CC0362E070E00E942E09CB018C509E4F3E
:1003F0000E94750360E083E00E94A20405C060E0F3
:1004000070E08AE00E94E70384E00E945904892B8F
:10041000E1F060910C0170910D0189E00E94E70309
:1004200061E083E00E94A20480E00E94CC0364E0CB
:1004300070E00E942E09CB018C509E4F0E947503E4
:1004400060E083E00E94A20405C060E070E089E003
:100450000E94E7031F910F910895CFEFD4E0DEBF14
:10046000CDBF0E9482030E943F010E946B01FDCF1D
:1004700008950895CB01BA010E94ED0408950E94E9
:100480002E05992708950E943F0508950E945E0554
:100490000895862F0E94A5050895CB010E94AC0502
:1004A0000895862F0E94A50508950F931F938C0130
:1004B0006DE00E9449026AE0C8010E9449021F9152
:1004C0000F9108950F931F938C010E944902C80158
:1004D0000E9455021F910F9108950F931F938C0155
:1004E0000E944D02C8010E9455021F910F9108956C
:1004F0000F931F938C010E945102C8010E94550264
:100500001F910F910895CB01BA0133274427552736
:100510000E94B90508952AE00E94830208950F936E
:100520001F938C010E948B02C8010E9455021F91EB
:100530000F910895AB01662777270E948B020895DB
:10054000EF92FF920F931F93CF93DF93EC017A0109
:100550008B0177FF0BC06DE20E9449021095009558
:10056000F094E094E11CF11C011D111D2AE0B8017A
:10057000A701CE010E948302DF91CF911F910F91BD
:10058000FF90EF9008950F931F938C010E94A0029B
:10059000C8010E9455021F910F9108952115310540
:1005A00021F4642F0E94490208952A30310519F47C
:1005B0000E94A00208950E94830208950F931F9342
:1005C0008C010E94CE02C8010E9455021F910F911A
:1005D0000895AB01662757FD6095762F0E94A00213
:1005E00008950F931F938C010E94E902C8010E9495
:1005F00055021F910F910895089508951F920F922B
:100600000FB60F9211248F939F93AF93BF93809156
:100610001D0190911E01A0911F01B0912001019632
:10062000A11DB11D80931D0190931E01A0931F0178
:10063000B0932001BF91AF919F918F910F900FBE0A
:100640000F901F90189560911D0170911E0180916F
:100650001F019091200127E0660F771F881F991FC7
:100660002A95D1F72DE730E040E050E00E944109A3
:10067000CA01B901089560911D0170911E01809118
:100680001F019091200137E0660F771F881F991F87
:100690003A95D1F72DE730E040E050E00E94410963
:1006A000CA01B9010895AF92BF92CF92DF92EF9243
:1006B000FF920F931F935B016C010E9423037B0148
:1006C0008C010E9423036E197F09800B910B6A1520
:1006D0007B058C059D05A8F31F910F91FF90EF906E
:1006E000DF90CF90BF90AF900895019751F0880FA1
:1006F000991F880F991F02972FB7F8940197F1F768
:100700002FBF0895789410921D0110921E0110922F
:100710001F011092200184B5826084BD84B5816080
:1007200084BD85B5826085BD85B5816085BDEEE6F9
:10073000F0E0808181608083E1E8F0E08081826088
:100740008083808181608083E0E8F0E08081816047
:100750008083E1EBF0E0808184608083E0EBF0E077
:10076000808181608083ECE7F0E080818F778083F7
:10077000808180648083EAE7F0E080818460808308
:1007800080818260808380818160808380818068B5
:1007900080831092C100089590917C00907F8F70AB
:1007A000982B90937C0080917A00806480937A00EB
:1007B00080917A0086FDFCCF2091780080917900AD
:1007C0009927982F88273327822B932B08951F93DF
:1007D000CF93DF93182FEB0161E00E943B04E12FE0
:1007E000FF27E654FF4F8491833051F480918000BD
:1007F000806880938000D0938900C093880037C0C0
:10080000843051F480918000806280938000D09386
:100810008B00C0938A002BC0813029F484B5806896
:1008200084BDC7BD24C0823029F484B5806284BDF4
:10083000C8BD1DC0863041F48091B00080688093AF
:10084000B000C093B30013C0873041F48091B00072
:1008500080628093B000C093B40009C0C038D10555
:1008600014F460E001C061E0812F0E94A204DF91D6
:10087000CF911F910895282F3327C90182539F4F8D
:10088000FC0194912E513F4FF9018491882381F00E
:10089000E82FFF27E050FF4FE491FF27662329F45C
:1008A000808190958923808308958081892B80831E
:1008B0000895482F5527CA0186549F4FFC01249163
:1008C000CA0182539F4FFC0194914E515F4FFA0130
:1008D00034913323A1F1222331F1233021F480918B
:1008E00080008F7705C0243031F4809180008F7DA7
:1008F0008093800018C0213019F484B58F7704C02C
:10090000223021F484B58F7D84BD0DC0263021F4C2
:100910008091B0008F7705C0273029F48091B00016
:100920008F7D8093B000E32FFF27EA50FF4FE491C3
:10093000FF278081892319F081E090E0089580E00D
:1009400090E00895482F5527CA0186549F4FFC0117
:100950002491CA0182539F4FFC0194914E515F4FE5
:10096000FA0134913323C1F1222331F1233021F4F0
:10097000809180008F7705C0243031F48091800011
:100980008F7D8093800018C0213019F484B58F7753
:1009900004C0223021F484B58F7D84BD0DC0263083
:1009A00021F48091B0008F7705C0273029F4809121
:1009B000B0008F7D8093B000E32FFF27E550FF4FFD
:1009C000E491FF27662329F4808190958923808311
:1009D00008958081892B80830895EF92FF920F9371
:1009E0001F937B018C0122E030E040E050E00E9448
:1009F0006309205C3D4B404F5F4FCA01B901A8011C
:100A000097010E9463092150304040405040BB276D
:100A100057FDBA95A52F942F832F2F5F3F4F4F4F30
:100A20005F4F8093C50021502093C400E1ECF0E0BB
:100A300080818061808380818860808380818068FC
:100A400080831F910F91FF90EF900895982F8091D0
:100A5000C00085FFFCCF9093C600089580911B01D4
:100A600090911C012091190130911A01821B930B66
:100A700080509F4F60E071E00E942E0908954091E0
:100A8000190150911A0180911B0190911C0184174A
:100A9000950719F48FEF9FEF0895FA01EF5DFE4F70
:100AA0002081CA01019660E071E00E942E099093B6
:100AB0001A0180931901822F9927089580911901B5
:100AC00090911A0190931C0180931B0108951F922D
:100AD0000F920FB60F9211242F933F934F935F9372
:100AE0006F937F938F939F93AF93BF93EF93FF93F6
:100AF0004091C600E0911B01F0911C01CF010196CD
:100B000060E071E00E942E099C0180911901909192
:100B10001A012817390739F0EF5DFE4F40833093F3
:100B20001C0120931B01FF91EF91BF91AF919F9109
:100B30008F917F916F915F914F913F912F910F9086
:100B40000FBE0F901F90189508950E9426050895D6
:100B50008AE00E94A5050895CF93DF93EC0103C0BE
:100B600021960E94A50588818823D1F7DF91CF9136
:100B700008952F923F924F925F926F927F928F9241
:100B80009F92AF92BF92CF92DF92EF92FF920F931C
:100B90001F93CF93DF93CDB7DEB7A0970FB6F8942E
:100BA000DEBF0FBECDBF6B017C0119012A016115AB
:100BB00071058105910521F480E30E94A5054BC0D4
:100BC0006624772443015E010894A11CB11C8501B1
:100BD000060D171DC701B601A20191010E9441092E
:100BE000F80160830894611C711C811C911CC70171
:100BF000B601A20191010E94410969017A01211502
:100C000031054105510519F773010894E108F10810
:100C1000EA0CFB1CAA24BB24650111C0F7018081EA
:100C20008A3010F4805D01C0895C0E94A50508949B
:100C3000A108B108C108D1080894E108F108882783
:100C40009927DC0186199709A809B909A816B906D8
:100C5000CA06DB0619F7A0960FB6F894DEBF0FBEE2
:100C6000CDBFDF91CF911F910F91FF90EF90DF905B
:100C7000CF90BF90AF909F908F907F906F905F903C
:100C80004F903F902F900895EF92FF920F931F93F4
:100C90007B018C0197FF0BC08DE20E94A50510958A
:100CA0000095F094E094E11CF11C011D111D2AE057
:100CB00030E040E050E0C801B7010E94B9051F9143
:100CC0000F91FF90EF90089520E130E040E050E078
:100CD0000E94B905089528E030E040E050E00E940D
:100CE000B905089522E030E040E050E00E94B905E7
:100CF0000895CF92DF92EF92FF920F931F93CF93BD
:100D0000DF93E82EF62EC42ED22EC0E0D0E007E00E
:100D100010E06D2D7727CC2039F40C2E02C075958C
:100D200067950A94E2F706C0002E02C07595679594
:100D30000A94E2F761708E2D0E94A20461E08F2D6B
:100D40000E94A20460E08F2D0E94A204219601500F
:100D50001040C830D105E9F6DF91CF911F910F9176
:100D6000FF90EF90DF90CF9008958CD001D06FC0AE
:100D7000552359F0992369F09F575F57951B33F41A
:100D800042F4903811F4915805C079C091589F3FB2
:100D900009F4A4C0BB27112462177307840730F439
:100DA000660F771F881FBB1F915098F311D00F92C9
:100DB0000FD00F920DD0A0E82617370748071B0663
:100DC00009F0A048BA2F602D7F918F9100240895DB
:100DD000A0E80024621773078407B10528F0621B9E
:100DE000730B840BB1090A2A660F771F881FBB1F7C
:100DF000A69581F7089597FB51D09F3738F0FEE90B
:100E0000F91B982F872F762F6B2F05C064C09695FE
:100E1000879577956795F150D0F73EF4909580953A
:100E2000709561957F4F8F4F9F4F0895E89403C051
:100E300097FB0EF4F3DFB62F672F782F892F9EE9EB
:100E4000002405C09A95BB0F661F771F881F1124C9
:100E50009923A1F08823B2F79F3F59F0BB0F48F4C4
:100E600021F4002011F460FF04C06F5F7F4F8F4FAB
:100E70009F4F881F9795879597F908952CC09FEFEE
:100E800080EC0895052E092607FA440F551F5F3F91
:100E900079F0AA27A51708F051E04795880F991F08
:100EA0009F3F31F0BB27B91708F091E0879508956F
:100EB0009F919F911124E3CF97FB880F991F9F3F2C
:100EC00031F0BB27B91708F091E0879508959F91FD
:100ED0009F911124D4CF66277727882799270895D3
:100EE000D1DF01D0B4CF992339F0552329F09F5792
:100EF0005F57950F13F49AF1F1CF91589F3FE1F3AB
:100F0000629FA12D0F92BB27639FA00DB11DEE27FD
:100F1000729FA00DB11DEE1FAF93AA27649FB00D65
:100F2000E11D739FB00DE11DAA1F6627829FB00DC2
:100F3000E11DA61F5527749FE00DA11D551F839F1E
:100F4000E00DA11D561F849FA00D511D852F7A2FE6
:100F50006E2F1F900F9088231AF4939539F48FCF3A
:100F6000000C111CBB1F661F771F881F01280895E6
:100F70003CD038F02ED060F186F021F436D009F064
:100F80003EF57DCF5F934F933F932F93C6D02F9124
:100F90003F914F915F91A4DF34C027D098F389F03F
:100FA0000894E795D901AA2329F4AB2FBE2FF85F47
:100FB000D0F3E8CFFF5F30F7A695E0F7F73908F3F5
:100FC00009F09F779F939F77DDDFEF91E0789E2771
:100FD0000895E894FC01EE0FFF1F3096610571053E
:100FE00019F0F395F14097FB0895E894FA01EE0F9C
:100FF000FF1F30962105310519F0F395F14057FB9D
:101000000895092E99234AF052E441EB32E7683102
:1010100073078407950758F032CF9F7752E44EEA62
:101020003CEA603573078407950708F054CF0F92A8
:101030005FE348EB3AEA2BE353DFFF92EF92DF9254
:10104000CF9250E04CE092D0EAE6F0E026D05F2D5F
:101050004E2D3D2D2C2DCF90DF90EF90FF90FEE98F
:101060004595441F551FF51B5527406804C04695FC
:10107000379527955795FA95D2F7452F550F550B6C
:101080003FD00F9007FC01C008959B01AC019FE386
:1010900080E8772766270C94B506FF92EF92DF92DF
:1010A000CF92BF926B017C01B59016D0B590BB205A
:1010B00069F09F938F937F936F93B601C7010CD014
:1010C0002F913F914F915F910E94B506BF90CF90B5
:1010D000DF90EF90FF900895BCD002C09601A70169
:1010E000EF93FF930E947007FF91EF91B2D0EF93BF
:1010F000FF930E94E708FF91EF91BA9479F7089562
:10110000DBDE992329F05F3F29F0552319F00AF41B
:10111000E2CEB5CE940F151E9ACE97FDB0CECCDEA2
:10112000992309F4ACCEFF92EF92DF92CF92C92EB1
:101130009FE38F77E8E8F0E0B0DF0C2CC92ED82EC3
:10114000E72EF62E602D6E57770B872F972F70DEC8
:101150005FE341E332E728E1C3DE5C2D4D2D3E2DF8
:101160002F2DCF90DF90EF90FF9031C0A5DECF9371
:10117000DF93D52FC42F55274427332722279923C0
:10118000D9F09F37C8F0F92F62DE592F482F372F3B
:10119000262FF63968F42FDE4BDEC030CD0721F064
:1011A00069937993899399939058DF91CF910FC068
:1011B0009927882777276627C030CD0721F0299304
:1011C000399349935993DF91CF9141CE5058192EBD
:1011D00059DE01D03CCEBA17620773078407950722
:1011E000B1F188F40EF410940B2EBA2FA02D062E18
:1011F000622F202D072E732F302D082E842F402D87
:10120000092E952F502DFF275523B9F0591B49F072
:10121000573E98F0469537952795A795F0405395FA
:10122000C9F776F0BA0F621F731F841F30F48795D9
:1012300077956795B795F040939517FA0F2E089517
:10124000BF1BBB27BA0B620B730B840BF6CFDEF60A
:1012500045CE5591459135912591089597FB092EDD
:1012600007260AD077FD04D049D006D000201AF412
:10127000709561957F4F0895F6F7909581959F4FF2
:101280000895A1E21A2EAA1BBB1BFD010DC0AA1FC7
:10129000BB1FEE1FFF1FA217B307E407F50720F0DF
:1012A000A21BB30BE40BF50B661F771F881F991F5A
:1012B0001A9469F760957095809590959B01AC01A3
:1012C000BD01CF01089597FB092E05260ED057FDCD
:1012D00004D0D7DF0AD0001C38F4509540953095E3
:1012E00021953F4F4F4F5F4F0895F6F790958095AA
:1012F000709561957F4F8F4F9F4F0895AA1BBB1B21
:1013000051E107C0AA1FBB1FA617B70710F0A61B05
:10131000B70B881F991F5A95A9F780959095BC0126
:10132000CD010895EE0FFF1F0590F491E02D099473
:081330007374617274656400BE
:00000001FF
